:1000000012C02CC02BC02AC029C028C027C026C0BF
:1000100025C024C023C022C021C020C01FC01EC0D4
:100020001DC01CC01BC011241FBECFE5D4E0DEBF25
:10003000CDBF10E0A0E6B0E0E8E8F5E002C0059032
:100040000D92A438B107D9F710E0A4E8B0E001C0E0
:100050001D92A939B107E1F7A8D094C2D1CF779BFF
:1000600006C077999FB9779BFECF77998FB908958E
:1000700077998FB977996FB9089577991FB877995C
:100080001FB88FB10895779B02C081E18FB9779B2C
:1000900002C08FED8FB90895779B02C081E18FB9BF
:1000A000779B02C08BEF8FB9E0918600F0918700BB
:1000B00077991FB877991FB88FB1818377991FB847
:1000C00077991FB88FB1828377991FB877991FB836
:1000D0008FB1848377991FB877991FB88FB18383C5
:1000E00077991FB877991FB88FB1858396817799D3
:1000F0001FB877991FB88FB1890F86830895779BB2
:1001000002C081E18FB9779B02C08FEE8FB908954D
:100110000BB606FE12C077991FB877991FB87A9967
:10012000BBDF77991FB877991FB87D99ACDF7799B6
:100130001FB877991FB87C99E2DF0895982F779BB5
:1001400002C08DE18FB977999FB908950895CF9333
:10015000DF93EC01CB01609184007091850050E049
:10016000CED188815D9BFECF8CB921968881882372
:10017000C1F7E0918400F091850080815D9BFECF06
:100180008CB93196F0938500E0938400319781819A
:10019000882379F75D9BFECF8AE08CB95D9BFECF0B
:1001A0008DE08CB9DF91CF91089587B3866087BBCE
:1001B0006C9A6E9A689AC19A88E890E0909387004A
:1001C0008093860088E18AB98EE880BD10BC80E10A
:1001D00089B9599A81E190E08DD090938500809300
:1001E0008400009751F4E0E6F0E080815D9BFECF53
:1001F0008CB9319680818823C1F7779B02C088E152
:100200008FB977991FB8E0918600F09187009181AE
:10021000779B02C083E18FB977999FB99081779BD3
:1002200002C082E18FB977999FB99281779B02C012
:1002300084E18FB977999FB99481779B02C086E159
:100240008FB977999FB99381779B02C085E18FB968
:1002500077999FB99185779B02C08BE18FB9779988
:100260009FB99285779B02C08CE18FB977999FB92E
:100270009085779B02C08AE18FB977999FB977996A
:100280001FB877991FB88FB1818377991FB8779975
:100290001FB88FB1828377991FB877991FB88FB134
:1002A000848377991FB877991FB88FB18383779923
:1002B0001FB877991FB88FB18583968177991FB83A
:1002C00077991FB88FB1890F868389E5818382E191
:1002D00082838EE690E069E570E040E138DFE091EE
:1002E0008600F0918700628187E790E070E040E14E
:1002F0002EDFFFCFCF93DF93BC018230910510F446
:1003000062E070E0A0919700B0919800ED01E0E00C
:10031000F0E040E050E021C088819981861797077E
:1003200069F48A819B81309719F09383828304C09A
:100330009093980080939700FE0134C06817790766
:1003400038F44115510519F08417950708F4AC01EC
:10035000FE018A819B819C01E9012097E9F6411504
:100360005105A9F1CA01861B970B049708F4BA013D
:10037000E0E0F0E02AC08D919C91119784179507D9
:10038000F9F46417750781F412968D919C91139777
:10039000309719F09383828304C0909398008093E0
:1003A0009700FD0132964FC0CA01861B970BFD01D5
:1003B000E80FF91F6193719302978D939C9343C04B
:1003C000FD01828193819C01D9011097A1F6809152
:1003D000950090919600892B41F480918000909136
:1003E00081009093960080939500409182005091F7
:1003F00083004115510541F44DB75EB780917E00F1
:1004000090917F00481B590B2091950030919600E8
:1004100024173507B0F4CA01821B930B8617970780
:1004200080F0AB014E5F5F4F8417950750F0420F8D
:10043000531F5093960040939500F9016193719377
:1004400002C0E0E0F0E0CF01DF91CF910895CF93BB
:10045000DF93009709F450C0EC0122971B821A82A7
:10046000A0919700B0919800109709F140E050E0FA
:10047000AC17BD0708F1BB83AA83FE01219131911E
:10048000E20FF31FAE17BF0779F48D919C9111977E
:10049000280F391F2E5F3F4F3983288312968D9185
:1004A0009C9113979B838A834115510571F4D093D6
:1004B0009800C093970020C012968D919C9113973D
:1004C000AD01009711F0DC01D3CFFA01D383C283D1
:1004D00021913191E20FF31FCE17DF0769F4888174
:1004E0009981280F391F2E5F3F4FFA0131832083F6
:1004F0008A819B8193838283DF91CF910895FB0151
:100500009F01E8944230BCF04532ACF44A3029F403
:1005100097FB1EF4909581959F4F642F77271ED0EF
:10052000805D8A330CF0895D8193CB010097A9F738
:1005300016F45DE251931082C90100C0DC01FC0198
:10054000672F71917723E1F7329704C07C916D9307
:1005500070836291AE17BF07C8F30895AA1BBB1B37
:1005600051E107C0AA1FBB1FA617B70710F0A61BB3
:10057000B70B881F991F5A95A9F780959095BC01D4
:08058000CD010895F894FFCFAE
:100588004D616C6C6F63206572722E0A0D004D69A7
:100598006E757465732000486F75727320002000B3
:0405A80099000000B6
:00000001FF
