:1000000012C02CC02BC02AC029C028C027C026C0BF
:1000100025C024C023C022C021C020C01FC01EC0D4
:100020001DC01CC01BC011241FBECFE5D4E0DEBF25
:10003000CDBF10E0A0E6B0E0E8E8F3E002C0059034
:100040000D92AC36B107D9F710E0ACE6B0E001C0D4
:100050001D92A037B107E1F72ED094C1D1CFEF9216
:10006000FF920F931F93CF93DF937C018B0181E16C
:1000700090E040D0EC01C801BE014AE050E03FD121
:10008000F70180815D9BFECF8CB90894E11CF11CC7
:10009000F70180818823A1F788815D9BFECF8CB911
:1000A000219688818823C1F7DF91CF911F910F910D
:1000B000FF90EF900895CF93DF9388E18AB98EE89F
:1000C00080BD10BC80E189B9599A20E137E2C0E9CE
:1000D000D1E005C0CE010197F1F721503040211544
:1000E0003105C1F780E690E063ED7FEFB8DF20E1F6
:1000F00037E2F0CFCF93DF93BC018230910510F44B
:1001000062E070E0A0916E00B0916F00ED01E0E060
:10011000F0E040E050E021C0888199818617970780
:1001200069F48A819B81309719F09383828304C09C
:1001300090936F0080936E00FE0134C068177907BA
:1001400038F44115510519F08417950708F4AC01EE
:10015000FE018A819B819C01E9012097E9F6411506
:100160005105A9F1CA01861B970B049708F4BA013F
:10017000E0E0F0E02AC08D919C91119784179507DB
:10018000F9F46417750781F412968D919C91139779
:10019000309719F09383828304C090936F0080930B
:1001A0006E00FD0132964FC0CA01861B970BFD0100
:1001B000E80FF91F6193719302978D939C9343C04D
:1001C000FD01828193819C01D9011097A1F6809154
:1001D0006C0090916D00892B41F4809168009091A2
:1001E000690090936D0080936C0040916A0050917B
:1001F0006B004115510541F44DB75EB78091660023
:1002000090916700481B590B20916C0030916D0054
:1002100024173507B0F4CA01821B930B8617970782
:1002200080F0AB014E5F5F4F8417950750F0420F8F
:10023000531F50936D0040936C00F90161937193CB
:1002400002C0E0E0F0E0CF01DF91CF910895CF93BD
:10025000DF93009709F450C0EC0122971B821A82A9
:10026000A0916E00B0916F00109709F140E050E04E
:10027000AC17BD0708F1BB83AA83FE012191319120
:10028000E20FF31FAE17BF0779F48D919C91119780
:10029000280F391F2E5F3F4F3983288312968D9187
:1002A0009C9113979B838A834115510571F4D093D8
:1002B0006F00C0936E0020C012968D919C91139791
:1002C000AD01009711F0DC01D3CFFA01D383C283D3
:1002D00021913191E20FF31FCE17DF0769F4888176
:1002E0009981280F391F2E5F3F4FFA0131832083F8
:1002F0008A819B8193838283DF91CF910895FB0153
:100300009F01E8944230BCF04532ACF44A3029F405
:1003100097FB1EF4909581959F4F642F77271ED0F1
:10032000805D8A330CF0895D8193CB010097A9F73A
:1003300016F45DE251931082C90100C0DC01FC019A
:10034000672F71917723E1F7329704C07C916D9309
:1003500070836291AE17BF07C8F30895AA1BBB1B39
:1003600051E107C0AA1FBB1FA617B70710F0A61BB5
:10037000B70B881F991F5A95A9F780959095BC01D6
:08038000CD010895F894FFCFB0
:0C0388004461746120002000700000003F
:00000001FF
