:1000000012C02CC02BC02AC029C028C027C026C0BF
:1000100025C024C023C022C021C020C01FC01EC0D4
:100020001DC01CC01BC011241FBECFE5D4E0DEBF25
:10003000CDBF10E0A0E6B0E0ECEDF3E002C005902B
:100040000D92A438B107D9F710E0A4E8B0E001C0E0
:100050001D92AA38B107E1F741D0BEC1D1CF81E1ED
:1000600090E072D0009751F4E0E6F0E080815D9B73
:10007000FECF8CB9319680818823C1F70895CF9344
:10008000DF93EC01CB0160918400709185004AE020
:1000900050E05FD188815D9BFECF8CB9219688812D
:1000A0008823C1F7E0918400F091850080815D9BF9
:1000B000FECF8CB93196F0938500E09384003197A0
:1000C0008181882379F75D9BFECF8AE08CB95D9BA7
:1000D000FECF8DE08CB9DF91CF910895CF93DF9360
:1000E00088E18AB98EE880BD10BC80E189B9599A4F
:1000F00084E890E0B4DFB89AC0E9D1E01AC080E1AA
:1001000097E2FE013197F1F70197D9F7C09A8EE691
:1001100090E063ED7FEFB3DFC09880E197E2FE01EE
:100120003197F1F70197D9F784E790E06AEF70E033
:10013000A6DF8091840090918500892B01F780E0F3
:1001400090E0DF91CF910895CF93DF93BC0182308F
:10015000910510F462E070E0A0918800B0918900F0
:10016000ED01E0E0F0E040E050E021C088819981BD
:100170008617970769F48A819B81309719F09383DA
:10018000828304C09093890080938800FE0134C06C
:100190006817790738F44115510519F08417950748
:1001A00008F4AC01FE018A819B819C01E901209742
:1001B000E9F641155105A9F1CA01861B970B049771
:1001C00008F4BA01E0E0F0E02AC08D919C9111970B
:1001D00084179507F9F46417750781F412968D91C9
:1001E0009C911397309719F09383828304C0909366
:1001F000890080938800FD0132964FC0CA01861B9A
:10020000970BFD01E80FF91F6193719302978D938E
:100210009C9343C0FD01828193819C01D901109779
:10022000A1F68091860090918700892B41F48091FE
:100230008000909181009093870080938600409188
:100240008200509183004115510541F44DB75EB7CE
:1002500080917E0090917F00481B590B2091860071
:100260003091870024173507B0F4CA01821B930B25
:100270008617970780F0AB014E5F5F4F8417950795
:1002800050F0420F531F5093870040938600F901AE
:100290006193719302C0E0E0F0E0CF01DF91CF9174
:1002A0000895CF93DF93009709F450C0EC01229793
:1002B0001B821A82A0918800B0918900109709F1E1
:1002C00040E050E0AC17BD0708F1BB83AA83FE01F4
:1002D00021913191E20FF31FAE17BF0779F48D9191
:1002E0009C911197280F391F2E5F3F4F3983288328
:1002F00012968D919C9113979B838A83411551058A
:1003000071F4D0938900C093880020C012968D911B
:100310009C911397AD01009711F0DC01D3CFFA0146
:10032000D383C28321913191E20FF31FCE17DF07F0
:1003300069F488819981280F391F2E5F3F4FFA0198
:10034000318320838A819B8193838283DF91CF9144
:100350000895FB019F01E8944230BCF04532ACF4B3
:100360004A3029F497FB1EF4909581959F4F642F96
:1003700077271ED0805D8A330CF0895D8193CB0195
:100380000097A9F716F45DE251931082C90100C0ED
:10039000DC01FC01672F71917723E1F7329704C0EC
:1003A0007C916D9370836291AE17BF07C8F3089577
:1003B000AA1BBB1B51E107C0AA1FBB1FA617B7078B
:1003C00010F0A61BB70B881F991F5A95A9F78095A7
:0C03D0009095BC01CD010895F894FFCF7A
:1003DC004D616C6C6F63206572722E0A0D00446166
:1003EC00746120004E657720446174612000200008
:0403FC008A00000073
:00000001FF
