:1000000012C02CC02BC02AC029C028C027C026C0BF
:1000100025C024C023C022C021C020C01FC01EC0D4
:100020001DC01CC01BC011241FBECFE5D4E0DEBF25
:10003000CDBF10E0A0E6B0E0E4EBF3E002C0059035
:100040000D92A637B107D9F710E0A6E7B0E001C0DE
:100050001D92AC37B107E1F731D0AAC1D1CFCF9310
:10006000DF93EC01CB0160917600709177004AE05C
:1000700050E05BD188815D9BFECF8CB92196888151
:100080008823C1F7E0917600F091770080815D9B35
:10009000FECF8CB93196F0937700E09376003197DC
:1000A0008181882379F75D9BFECF8AE08CB95D9BC7
:1000B000FECF8DE08CB9DF91CF910895CF93DF9380
:1000C00081E190E02DD0809376009093770088E1D5
:1000D0008AB98EE880BD10BC80E189B9599A20E1C7
:1000E00037E2C0E9D1E005C0CE010197F1F7215018
:1000F000304021153105C1F780E690E063ED7FEFD8
:10010000AEDF80E197E2FE013197F1F70197D9F771
:1001100086E690E06AEF70E0A2DF20E137E2E4CF0C
:10012000CF93DF93BC018230910510F462E070E060
:10013000A0917A00B0917B00ED01E0E0F0E040E0BA
:1001400050E021C0888199818617970769F48A81D8
:100150009B81309719F09383828304C090937B0036
:1001600080937A00FE0134C06817790738F441158E
:10017000510519F08417950708F4AC01FE018A8136
:100180009B819C01E9012097E9F641155105A9F1F0
:10019000CA01861B970B049708F4BA01E0E0F0E06F
:1001A0002AC08D919C91119784179507F9F46417D3
:1001B000750781F412968D919C911397309719F0E1
:1001C0009383828304C090937B0080937A00FD0127
:1001D00032964FC0CA01861B970BFD01E80FF91F2D
:1001E0006193719302978D939C9343C0FD0182812B
:1001F00093819C01D9011097A1F68091780090918C
:100200007900892B41F48091720090917300909352
:1002100079008093780040917400509175004115E9
:10022000510541F44DB75EB7809170009091710017
:10023000481B590B2091780030917900241735071D
:10024000B0F4CA01821B930B8617970780F0AB01AD
:100250004E5F5F4F8417950750F0420F531F509326
:10026000790040937800F9016193719302C0E0E056
:10027000F0E0CF01DF91CF910895CF93DF93009706
:1002800009F450C0EC0122971B821A82A0917A00D7
:10029000B0917B00109709F140E050E0AC17BD072A
:1002A00008F1BB83AA83FE0121913191E20FF31F74
:1002B000AE17BF0779F48D919C911197280F391FC4
:1002C0002E5F3F4F3983288312968D919C9113970F
:1002D0009B838A834115510571F4D0937B00C093B1
:1002E0007A0020C012968D919C911397AD010097D2
:1002F00011F0DC01D3CFFA01D383C2832191319174
:10030000E20FF31FCE17DF0769F488819981280F68
:10031000391F2E5F3F4FFA01318320838A819B81F1
:1003200093838283DF91CF910895FB019F01E8942D
:100330004230BCF04532ACF44A3029F497FB1EF44D
:10034000909581959F4F642F77271ED0805D8A33CB
:100350000CF0895D8193CB010097A9F716F45DE25B
:1003600051931082C90100C0DC01FC01672F71911B
:100370007723E1F7329704C07C916D93708362918B
:10038000AE17BF07C8F30895AA1BBB1B51E107C0F6
:10039000AA1FBB1FA617B70710F0A61BB70B881F15
:1003A000991F5A95A9F780959095BC01CD010895A4
:0403B000F894FFCFEF
:1003B4004461746120004E657720446174612000BB
:0603C40020007C00000097
:00000001FF
